S01A000053616E595F4D696E69496E746567726174652E7372656300
S214000000007000201104000079040000790400004C
S2140000107904000079040000790400000000000064
S2140000200000000000000000000000006153010016
S2140000307904000000000000A155010009560100E7
S214000040CF930000DD930000EB930000F9930000CF
S21400005007940000159400002394000031940000DB
S2140000603F9400004D9400005B94000069940000EB
S214000070779400008594000093940000A1940000FB
S214000080AF940000790400007904000079040000B1
S2140000907904000079040000790400007904000067
S2140000A07904000079040000790400007904000057
S2140000B07904000079040000790400007904000047
S2140000C07904000079040000790400007904000037
S2140000D07904000079040000790400005718010034
S2140000E06518010079040000790400007904000016
S2140000F07904000079040000790400007904000007
S21400010079040000790400007904000079040000F6
S21400011079040000790400007904000079040000E6
S21400012079040000790400007904000079040000D6
S21400013079040000790400007904000079040000C6
S21400014079040000790400007904000079040000B6
S21400015079040000790400007904000079040000A6
S2140001607904000079040000790400007904000096
S214000170790400007904000057BF000065BF000046
S21400018073BF000081BF00008FBF0000790400002D
S214000190790400009DBF0000ABBF0000790400009A
S2140001A0B9BF00007904000079040000790400005B
S2140001B0C7BF0000D5BF000079040000E3BF000001
S2140001C07904000079040000790400007904000036
S2140001D07904000079040000790400007904000026
S2140001E07904000079040000790400007904000016
S2140001F07904000079040000790400007904000006
S2140003F0790400007904000079040000FFFFFFFF85
S214000400FFFFFFFFFFFFFFFFFFFFFFFFFE7FFFFF78
S21400041072B64FF000014FF000024FF000034FF0AD
S21400042000044FF000054FF000064FF00007B846F6
S214000430B946BA46BB46BC460A490B4A521A013A66
S21400044005DD0020042308601944043AFBDA074857
S2140004508546074880470748804762B615F0F8FB90
S214000460FEE700000080FF1F0070002000700020E4
S2140004707D4B0000D54B0000FFF7FEBF7BB972B97D
S2140004800029BEBF00204FF0004106E008BF00284C
S2140004901CBF6FF000414FF0FF3000F0C9B9ADF15E
S2140004A0080C6DE904CE002909DB002B1ADB00F0EE
S2140004B04DF8DDF804E0DDE9022304B07047404261
S2140004C061EB4101002B1BDB00F040F8DDF804E097
S2140004D0DDE9022304B0404261EB4101524263EB86
S2140004E043037047524263EB430300F02FF8DDF8F6
S2140004F004E0DDE9022304B0404261EB41017047AD
S214000500524263EB430300F021F8DDF804E0DDE936
S214000510022304B0524263EB4303704753B94AB90F
S214000520002908BF00281CBF4FF0FF314FF0FF30F6
S21400053000F07EB9ADF1080C6DE904CE00F006F8C7
S214000540DDF804E0DDE9022304B070472DE9F0474A
S214000550089D04468E46002B4ED18A4294466DD99D
S214000560B2FA82F757B1C7F1200EB94020FA0EFE54
S21400057002FA07FC4EEA010E00FA07F44FEA1C499D
S214000580210CBEFBF9F61FFA8CF809FB16EE41EAC1
S2140005900E4106FB08F38B420AD91CEB010106F15B
S2140005A0FF3280F027818B4240F22481023E614474
S2140005B0C91AA4B2B1FBF9F009FB101144EA0144D0
S2140005C000FB08F8A0450AD91CEB040400F1FF3331
S2140005D080F00E81A04540F20B810238644440EA68
S2140005E00640A4EB080400267DB1FC4000232C60E6
S2140005F06B603146BDE8F0878B4209D9002D00F0CC
S2140006001481002685E8030030463146BDE8F087B1
S214000610B3FA83F6002E40F090808B4202D38242DB
S21400062000F2FD80841A61EB030101208E46002D46
S214000630EBD085E810403146BDE8F0871AB94FF098
S214000640010CBCFBF2FCBCFA8CF7A7BBA1EB0C03BD
S2140006504FEA1C421FFA8CF80126B3FBF2FE210C6F
S21400066002FB1E3341EA034108FB0EF38B4208D916
S2140006701CEB01010EF1FF3002D28B4200F2D1805A
S2140006808646C91AA3B2B1FBF2F002FB101143EA88
S214000690014408FB00F8A04508D91CEB040400F14F
S2140006A0FF3302D2A04500F2B7801846A4EB080438
S2140006B040EA0E4098E7C7F1200301FA07F40CFA67
S2140006C007FC20FA03FED9404FEA1C424EEA040E0D
S2140006D0B1FBF2F64FEA1E4302FB16111FFA8CF826
S2140006E043EA014306FB08F1994200FA07F40AD9E7
S2140006F01CEB030306F1FF3080F08C80994240F239
S2140007008980023E63445B1A1FFA8EF1B3FBF2F057
S21400071002FB103341EA034100FB08F38B4208D981
S2140007201CEB010100F1FF3E70D28B426ED90238FD
S2140007306144CB1A40EA06468FE7C6F1200722FA44
S21400074007F8B34001FA06F448EA030320FA07FC68
S2140007504FEA134EF9404CEA040CB1FBFEF94FEA9F
S2140007601C440EFB19111FFA83F844EA014109FBE9
S21400077008F48C4202FA06F200FA06FA08D959186A
S21400078009F1FF3044D28C4242D9A9F1020919443A
S214000790091B1FFA8CFCB1FBFEF00EFB10114CEA95
S2140007A0014400FB08F8A04507D91C1900F1FF31E9
S2140007B02AD2A04528D902381C4440EA0940A4EBB6
S2140007C00804A0FB02894C45C446494616D313D0FC
S2140007D055B1BAEB0C0364EB010404FA07F7F340D7
S2140007E01F43F4402F606C6000263146BDE8F0875A
S2140007F01846F4E61646DBE6C245E9D2B8EB020C2C
S21400080069EB03010138E3E70846D6E7704690E750
S2140008108146BDE7064676E70238644446E730463A
S21400082005E7AEF1020E61442BE72E462846ECE6BD
S214000830704700BF80B586B000AF78600023FB60CD
S214000840022013F0B5FA02463F4B1A603F4B1A6877
S2140008503D4B1B681946104613F0B9FA3C4B1A6814
S214000860394B1B681946104613F0B1FA4FF47A70EC
S21400087000F034FE012000F041FE334B1B684FF0C1
S214000880FF31184613F0C4FA786107F1100300220E
S2140008901946786912F0EEFF2C4B1B687A699A426B
S2140008A0EBD02B4B1B687A699A42E6D101F0AAF886
S2140008B003461A46274B1B789A421DD001F0A2F831
S2140008C003461A46234B1A70224B1B78012B02D183
S2140008D00123FB6008E01F4B1B78022B02D102238A
S2140008E0FB6001E00023FB601B4B186807F10C015E
S2140008F00023002212F064FD01F092F803461A4627
S214000900164B1B789A42B8D001F08AF803461A466E
S214000910124B1A70114B1B78012B02D10123FB607E
S21400092008E00E4B1B78022B02D10223FB6001E08D
S2140009300023FB600A4B186807F10C010023002215
S21400094012F03EFD99E700BF00000020104900208D
S214000950144900200400002028490020050000203B
S2140009602C49002080B586B000AF786000233B613C
S2140009700023FB820023BB820023FB60574B1B68CF
S2140009807A689A420ED101F017F901F093F905231F
S2140009903B61534B186807F110010023002212F048
S2140009A00FFD96E04F4B1B687A689A4260D101F0C3
S2140009B09DFA0346FB8201F0D6FA0346BB82BB8A49
S2140009C042F20F72934222D8474B00221A70474BCE
S2140009D01B780133DAB2454B1A70444B1B78022B56
S2140009E037D9424B02221A700023FB60404B1A682C
S2140009F0FB689A422DD0FB683D4A13603D4B186851
S214000A0007F10C010023002212F0DAFC21E0374B3C
S214000A1000221A70344B1B780133DAB2324B1A704C
S214000A20314B1B78022B14D92F4B02221A7001234C
S214000A30FB602F4B1A68FB689A420AD0FB682C4A68
S214000A4013602C4B186807F10C010023002212F0EB
S214000A50B7FC00F0ABF902F0F1F80A233B61264B35
S214000A60186807F110010023002212F0A9FC30E0FC
S214000A70224B1B687A689A420AD114233B61204BAA
S214000A80186807F110010023002212F099FC20E0FC
S214000A901C4B1B687A689A420AD132233B611A4B78
S214000AA0186807F110010023002212F089FC10E0FC
S214000AB0164B1B687A689A420BD100F09FFB6423A2
S214000AC03B61134B186807F110010023002212F057
S214000AD077FC00BF1837BD4680BD00BFFC4800202D
S214000AE010490020004900200600002007000020D2
S214000AF00084FF1F244900201449002004490020D8
S214000B0018490020084900201C4900200C490020F4
S214000B102049002080B586B000AF7860012013F031
S214000B2047F902461F4B1A601F4B1A681D4B1B687D
S214000B301946104613F04BF94FF07C537B61D7ED06
S214000B40057A9FED1A7A67EE877AFDEEE77A17EE5A
S214000B50903A3B613B691A460521154812F022FA85
S214000B603B691A460421124812F01CFA3B691A46E1
S214000B7003210F4812F016FA3B691A4606210C4864
S214000B8012F010FA074B1B684FF0FF31184613F0AF
S214000B903FF9F86007F1080300221946F86812F0DA
S214000BA069FEEFE708000020184900200050434780
S214000BB0F448002080B584B000AF78600023FB8145
S214000BC0052013F0F5F80246494B1A60494B1A689F
S214000BD0474B1B681946104613F0F9F8464B1A683F
S214000BE0434B1B681946104613F0F1F8434B1A683E
S214000BF03F4B1B681946104613F0E9F8404B1A683D
S214000C003B4B1B681946104613F0E1F83D4B1A683B
S214000C10374B1B681946104613F0D9F8012001F02F
S214000C2006FA334B1B684FF0FF31184613F0F0F806
S214000C300246354B1A60344B1B6807F10801002248
S214000C40184612F017FE304B1A682A4B1B689A4259
S214000C5003D1092001F0EBF9E3E72B4B1A68264B8A
S214000C601B689A421DD101F09BFC0346FB81B7F935
S214000C700E30F92B03DC062001F0D9F9D1E7B7F9DD
S214000C800E30B3F5967F03DA072001F0D0F9C8E7F7
S214000C90B7F90E30B3F5967FC3DD082001F0C7F92B
S214000CA0BFE7194B1A68154B1B689A4202D1BB68FE
S214000CB0002BB6E7144B1A68114B1B689A4202D1F8
S214000CC0BB68012BADE7104B1A680E4B1B689A42A7
S214000CD0A7D1BB68002B03D1022001F0A8F9A0E73A
S214000CE0BB68012B9DD1032001F0A1F999E700BF55
S214000CF00C0000201C490020204900202449002028
S214000D00284900202C4900201000002080B582B021
S214000D1000AF786039600121034810F05BFE00BF29
S214000D200837BD4680BD00BF506D010080B483B05B
S214000D3000AF7860396000BF0C37BD465DF8047BB5
S214000D407047000080B582B000AF7860396001213E
S214000D50034810F03FFE00BF0837BD4680BD00BF09
S214000D60A46D010080B483B000AF7860396000BF26
S214000D700C37BD465DF8047B7047000080B485B034
S214000D8000AF0346FB710023FB81FB791A2B04D8C6
S214000D90FB79054A32F81330FB81FB891846143775
S214000DA0BD465DF8047B70471400002080B582B015
S214000DB000AF0023FB710023FB710AE0FB79FA7990
S214000DC0264931F81210264A22F81310FB7901330F
S214000DD0FB71FB79072BF1D90823FB710BE0FB793C
S214000DE0FA79083A1F4931F812101D4A22F81310F2
S214000DF0FB790133FB71FB790B2BF0D90C23FB71CC
S214000E000BE0FB79FA790C3A174931F81210144ABC
S214000E1022F81310FB790133FB71FB79132BF0D901
S214000E201423FB710BE0FB79FA79143A0F4931F879
S214000E3012100B4A22F81310FB790133FB71FB7971
S214000E401A2BF0D900210A4810F0C4FD00210948E9
S214000E5010F0C0FD00BF0837BD4680BD404A0020E8
S214000E6014000020384A0020504A0020604A002023
S214000E70506D0100A46D010080B48BB000AF034636
S214000E80B9607A60FB81BB68FB617B68BB6100234D
S214000E90FB84FB89013BBB840023FB824FF6FF7378
S214000EA07B8400237B75BB68002B00F0CA80FB891F
S214000EB0002B00F0C680FB8C9B00FA6913441A686E
S214000EC0BB8C9B00F9690B441B689A428CBF0123BC
S214000ED00023DBB27B757B7D002B59D1FB8C9B00FE
S214000EE0FA6913441A68BB699A4202D3FB8C7B8466
S214000EF0A7E0BB8C9B00FA6913441A68BB699A4248
S214000F0003D2BB8C01337B849BE0FB8C9B00FA698D
S214000F1013441A68BB699A420CD2FB8C01339B00BF
S214000F20FA6913441A68BB699A4203D3FB8C0133EF
S214000F307B8486E0BB8C03F18043013B9B00FA690F
S214000F4013441A68BB699A420AD2BB8C9B00FA69A2
S214000F5013441A68BB699A4202D3BB8C7B8470E048
S214000F60FA8CBB8C13445B10FB82FB8A9B00FA69ED
S214000F7013441A68BB699A4202D2FB8AFB8401E0DA
S214000F80FB8ABB84FB8C5A1CBB8C9A42A6DB58E0BF
S214000F90FB8C9B00FA6913441A68BB699A4202D814
S214000FA0FB8C7B844DE0BB8C9B00FA6913441A686B
S214000FB0BB699A4203D9BB8C01337B8441E0FB8C2E
S214000FC09B00FA6913441A68BB699A420CD9FB8CD9
S214000FD001339B00FA6913441A68BB699A4203D826
S214000FE0FB8C01337B842CE0BB8C03F18043013BFC
S214000FF09B00FA6913441A68BB699A420AD9BB8CEB
S2140010009B00FA6913441A68BB699A4202D8BB8CE3
S2140010107B8416E0FA8CBB8C13445B10FB82FB8A45
S2140010209B00FA6913441A68BB699A4202D9FB8A84
S214001030FB8401E0FB8ABB84FB8C5A1CBB8C9A4267
S214001040A6DB7B8C18462C37BD465DF8047B7047C4
S21400105080B586B000AFF8607A603B600B46FB72E6
S2140010600023FB75FB7A002B58D12E4B5B682E4A6B
S21400107093421FD10023FB7509E0FB7DFA7D2949C9
S2140010800A44117A294AD154FB7D0133FB75FB7D56
S214001090244A92F84820072A03D8224A92F8482081
S2140010A000E008229342E8DB1E4A0021204811F0A7
S2140010B07FFB33E01B4B5B681E4A93421FD1002325
S2140010C0FB7509E0FB7DFA7D16490A44117A1A4A37
S2140010D0D154FB7D0133FB75FB7D124A92F8482004
S2140010E0072A03D80F4A92F8482000E008229342C5
S2140010F0E8DB0C4A01210E4811F05AFB0EE0094BC2
S2140011005B6840F20122934208D1064B1A7A0B4BD9
S2140011101A70044A0221064811F04AFB00BF18372D
S214001120BD4680BD30490020F1FA14185400002056
S214001130E44800207D76FF185C0000209C0000201C
S21400114080B500AF254B264A0021264811F0F0F95D
S214001150254B234A0121234811F0EAF940F20123E6
S2140011601F4A02211F4811F0E3F9204A03211D48B7
S21400117011F052F91D4A04211A4811F04DF91C4A83
S2140011800521184811F048F9194A0621154811F0AA
S21400119043F9174A0721134811F03EF9144A08216B
S2140011A0104811F039F9124A09210E4811F034F9A5
S2140011B0002210490B4811F0C1FB0F4A00210948D4
S2140011C011F0F6FA0C4A0121064811F0F1FA0A4A23
S2140011D00221044811F0ECFA00BF80BDF1FA1418A1
S2140011E00C84FF1FE44800207D76FF180484FF1F50
S2140011F04C000020511000003049002080B582B01D
S21400120000AF0023FB710023FB710AE0FB79FA793B
S214001210A249895CA24A13440A461A72FB79013332
S214001220FB71FB79072BF1D900BF03219D4811F014
S2140012302FFB0346022BF8D0994A0321994811F058
S2140012400BFA0023FB710AE0FB79FA799649895C70
S214001250964A13440A461A72FB790133FB71FB79EE
S214001260072BF1D900BF04218E4811F011FB03466D
S214001270022BF8D08D4A04218A4811F0EDF900239C
S214001280FB710AE0FB79FA798949895C894A13443B
S2140012900A461A72FB790133FB71FB79072BF1D9E9
S2140012A000BF05217F4811F0F3FA0346022BF8D061
S2140012B0804A05217B4811F0CFF901F06BFA03460E
S2140012C0184600F02BF901F06BF90346184600F0BB
S2140012D043F901F011FA0346184600F05BF901F0F5
S2140012E011F90346184600F073F9002001F0A0FA41
S2140012F003461BB2184600F089F9012001F098FA5F
S21400130003461BB2184600F09FF9022001F090FA3F
S21400131003461BB2184600F0B5F9674800F0D0F94E
S2140013200023FB710AE0FB79FA796449895C644A18
S21400133013440A461A72FB790133FB71FB79072BBB
S214001340F1D900BF0621574811F0A2FA0346022B36
S214001350F8D05B4A0621534811F07EF9002001F0D0
S2140013606DF90346184600F0C9F9012001F066F948
S2140013700346184600F0E0F94F4800F0FBF901F08C
S214001380BDFA0346184600F013FA022000F066FD88
S2140013900346184600F056FA002000F05FFD0346AC
S2140013A0184600F065FA012000F058FD034618467E
S2140013B000F074FA0023FB710AE0FB79FA794149E0
S2140013C0895C414A13440A461A72FB790133FB7161
S2140013D0FB79072BF1D900BF0721324811F058FAE4
S2140013E00346022BF8D0384A07212E4811F034F96C
S2140013F00023FB710AE0FB79FA793449895C344AA8
S21400140013440A461A72FB790133FB71FB79072BEA
S214001410F1D900BF0821234811F03AFA0346022BFF
S214001420F8D02B4A08211F4811F016F9002000F0CA
S214001430D7FD0346184600F0B5FA012000F0D0FDAF
S2140014400346184600F0BEFA022000F0C9FD034627
S214001450184600F0C7FA0023FB710AE0FB79FA7918
S2140014601C49895C1C4A13440A461A72FB790133EC
S214001470FB71FB79072BF1D900BF0921094811F050
S21400148007FA0346022BF8D0134A0921054811F043
S214001490E3F800BF0837BD4680BD00BF64000020EB
S2140014A01484FF1FE44800206C0000206084FF1FA7
S2140014B074000020AC84FF1F70FEFFFF7C0000203D
S2140014C0F884FF1F840000204485FF1F8C00002046
S2140014D09085FF1F94000020DC85FF1F80B483B03A
S2140014E000AF0346FB80044AFB88138000BF0C371E
S2140014F0BD465DF8047B70476400002080B483B06E
S21400150000AF0346FB71044AFB79D37000BF0C376B
S214001510BD465DF8047B70476400002080B485B04B
S21400152000AF0346FB80B7F90630094A82FB031278
S2140015309210DB17D31A1BB2DBB22833FB73054AB3
S214001540FB7B137000BF1437BD465DF8047B704705
S214001550676666667C00002080B485B000AF0346F0
S214001560FB80B7F90630094A82FB03129210DB179C
S214001570D31A1BB2DBB22833FB73054AFB7B93708E
S21400158000BF1437BD465DF8047B70476766666625
S2140015907C00002080B485B000AF0346FB80B7F91E
S2140015A00630094A82FB03129210DB17D31A1BB2CD
S2140015B0DBB22833FB73054AFB7B137100BF14377D
S2140015C0BD465DF8047B7047676666667C00002053
S2140015D080B485B000AF0346FB80B7F90630094AF1
S2140015E082FB03129210DB17D31A1BB2DBB228332E
S2140015F0FB73054AFB7B537000BF1437BD465DF88E
S214001600047B7047676666667C00002080B485B001
S21400161000AF0346FB80B7F90630094A82FB031287
S2140016209210DB17D31A1BB2DBB22833FB73054AC2
S214001630FB7B537100BF1437BD465DF8047B7047D3
S214001640676666667C00002080B485B000AF0346FF
S214001650FB80B7F90630094A82FB03129210DB17AB
S214001660D31A1BB2DBB22833FB73054AFB7B93719C
S21400167000BF1437BD465DF8047B70476766666634
S2140016807C00002080B485B000AF0346FB80B7F92D
S2140016900630094A82FB03129210DB17D31A1BB2DC
S2140016A0DBB22833FB73054AFB7BD37100BF1437CC
S2140016B0BD465DF8047B7047676666667C00002062
S2140016C080B485B000AF0346FB80B7F90630094A00
S2140016D082FB03129210DB17D31A1BB2DBB228333D
S2140016E0FB73054AFB7BD37000BF1437BD465DF81D
S2140016F0047B7047676666667C00002080B485B011
S21400170000AF0346FB80B7F90630094A82FB031296
S2140017109210DB17D31A1BB2DBB22833FB73054AD1
S214001720FB7B137000BF1437BD465DF8047B704723
S214001730676666668400002080B485B000AF034606
S214001740FB80B7F90630094A82FB03129210DB17BA
S214001750D31A1BB2DBB22833FB73054AFB7B5370EC
S21400176000BF1437BD465DF8047B70476766666643
S2140017708400002080B485B000AF0346FB80B7F934
S2140017800630094A82FB03129210DB17D31A1BB2EB
S214001790DBB22833FB73054AFB7B937000BF14371C
S2140017A0BD465DF8047B7047676666668400002069
S2140017B080B485B000AF0346FB80B7F90630094A0F
S2140017C082FB03129210DB17D31A1BB2DBB228334C
S2140017D0FB73054AFB7BD37000BF1437BD465DF82C
S2140017E0047B7047676666668400002080B483B01A
S2140017F000AF0346FB80FB88C3F3080399B2054A93
S214001800938861F30803938000BF0C37BD465DF8EC
S214001810047B70478400002080B483B000AF03468A
S214001820FB80FB88C3F3080399B2054AD38861F3AB
S2140018300803D38000BF0C37BD465DF8047B7047B5
S2140018408400002080B483B000AF0346FB71FB79B0
S21400185003F00103D9B2054A537961F3410353718A
S21400186000BF0C37BD465DF8047B7047840000203F
S21400187080B483B000AF0346FB71FB7903F001032D
S214001880D9B2054A537961F38203537100BF0C370E
S214001890BD465DF8047B70478400002080B483B0AA
S2140018A000AF0346FB71FB7903F00103D9B2054A8A
S2140018B0537961F3C303537100BF0C37BD465DF81F
S2140018C0047B70478400002080B483B000AF0346DA
S2140018D0FB71FB7903F00103D9B2054AD37961F3B2
S2140018E04513D37100BF0C37BD465DF8047B7047C7
S2140018F08400002080B483B000AF0346FB71FB7900
S21400190003F00103D9B2054AD37961F38613D37184
S21400191000BF0C37BD465DF8047B7047840000208E
S21400192080B483B000AF0346FB71FB7903F001037C
S214001930D9B2054AD37961F3C713D37100BF0C3708
S214001940BD465DF8047B70478400002080B483B0F9
S21400195000AF0346FB71FB7903F00303D9B2054AD7
S214001960D37961F34203D37100BF0C37BD465DF8EF
S214001970047B70478400002080B483B000AF034629
S214001980FB71FB7903F00303D9B2054AD37961F3FF
S214001990C403D37100BF0C37BD465DF8047B7047A7
S2140019A08400002080B483B000AF0346FB80044A66
S2140019B0FB88538000BF0C37BD465DF8047B70473C
S2140019C09400002080B483B000AF0346FB80044A36
S2140019D0FB88938000BF0C37BD465DF8047B7047DC
S2140019E09400002080B483B000AF0346FB80044A16
S2140019F0FB88138000BF0C37BD465DF8047B70473C
S214001A009400002080B400AF044B1B78C3F301039E
S214001A10DBB21846BD465DF8047B70479C0000208C
S214001A2080B400AF044B1B78C3F38103DBB21846C7
S214001A30BD465DF8047B70479C00002080B582B0F0
S214001A4000AF03460A46FB711346BB71FB79002BB9
S214001A5009D0012B00D00DE0BB791A4601210748BA
S214001A600FF00DFB06E0BB791A46002103480FF085
S214001A7006FB00BF00BF0837BD4680BD00F10F4023
S214001A8080B582B000AF03460A46FB711346BB71B1
S214001A90FB79002B09D0012B00D00DE0BB791A464C
S214001AA00B2107480FF0EBFA06E0BB791A4609212E
S214001AB003480FF0E4FA00BF00BF0837BD4680BDFC
S214001AC040F00F4080B582B000AF03460A46FB7177
S214001AD01346BB71FB79002B14D0012B00D026E0F7
S214001AE0BB79022B05D100220A2115480FF0C7FA50
S214001AF01AE0BB79012B17D101220A2110480FF0FA
S214001B00BEFA11E0BB79022B05D1002208210C4851
S214001B100FF0B5FA0AE0BB79012B07D101220821A4
S214001B2007480FF0ACFA01E000BF00E000BFFB7909
S214001B300449BA79CA5400BF0837BD4680BD00BF05
S214001B4040F00F40A800002080B582B000AF002310
S214001B50FB710023FB7121E0FB7900211846FFF79B
S214001B608FFFFB7901211846FFF768FFFB790121FB
S214001B701846FFF7A7FFFB790C4A4FF4FA7122F8D4
S214001B801310FB790A4A4FF4FA7122F81310FB7906
S214001B90084A0121D154FB790133FB71FB79012BF3
S214001BA0DAD900BF0837BD4680BD00BF2886FF1FB4
S214001BB0A4000020AC00002080B582B000AF002357
S214001BC0FB710023FB7164E0FB79354A32F8133071
S214001BD0002B5BD033480FF063FA0246FB790A33DA
S214001BE022FA03F303F00103012B46D1FB792C4ABA
S214001BF032F81320013A91B2294A22F81310FB79E1
S214001C00274A32F81330002B0DD1FB7901211846F4
S214001C10FFF736FFFB7900211846FFF70FFFFB7929
S214001C20214A0021D154FB79204AD35C012B0FD1E5
S214001C30FB791F4A32F81330002B1ED0FB791C4A62
S214001C4032F81320013A91B2194A22F8131014E020
S214001C50FB79164AD35C022B0FD1FB79144A32F873
S214001C601330B3F5FA7F08D2FB79114A32F8132005
S214001C70013291B20E4A22F81310FB790A33012280
S214001C8002FA03F3194607480FF016FAFB790133F8
S214001C90FB71FB79012B97D900BF0837BD4680BD85
S214001CA0A400002080F00F40B4000020A800002010
S214001CB02886FF1F80B582B000AF0023FB7100238B
S214001CC0FB7165E0FB79364AD35C012B09D1FB79C1
S214001CD0344A32F81330002B03D1FB79304A022104
S214001CE0D154FB792E4AD35C022B44D1FB792E4A81
S214001CF032F81320FB792B4931F813309A423AD048
S214001D00FB7900211846FFF7BBFEFB790121184638
S214001D10FFF794FEFB79244A32F81320FB79214919
S214001D2031F813309A4213D9FB7902211846FFF78F
S214001D30C9FEFB79FA791C4931F81210FA7919486C
S214001D4030F812208A1A91B2184A22F8131012E0BC
S214001D50FB7901211846FFF7B5FEFB79FA791149A0
S214001D6031F81210FA79104830F812208A1A91B217
S214001D700E4A22F813100B4B1B881846FFF736FD49
S214001D80084B5B881846FFF747FDFB790133FB716C
S214001D90FB79012B96D900BF0837BD4680BD00BF32
S214001DA0AC0000202886FF1FB0000020A400002002
S214001DB02DE9F04F85B000AF0346FB710023FB8191
S214001DC00023BB81FB79012B0AD0022B0ED0002BFF
S214001DD000D011E01220FEF7D1FF0346FB810BE096
S214001DE01320FEF7CBFF0346FB8105E01420FEF729
S214001DF0C5FF0346FB8100BFF9894FF000020B4682
S214001E0014464FEA441B4BEAD36B4FEA431A534639
S214001E105C465B1A64EB02044FEA840949EA93794C
S214001E204FEA830843464C465B1844EB0204A6017F
S214001E3046EA93669D012B4634461846214640F2F4
S214001E4033324FF00003FEF719FB03460C46BB8106
S214001E50BB8918461437BD46BDE8F08F80B584B000
S214001E6000AF0346FB710123FB73FB791846FFF7AF
S214001E709FFF03461A4641F287339A4202D8002350
S214001E80FB7309E0FB791846FFF792FF0346B3F5AC
S214001E907A5F01D90123FB73FB7B18461037BD46DA
S214001EA080BD000080B582B000AF0346FB71FB79B1
S214001EB01A460C2103480FF0E2F800BF0837BD466B
S214001EC080BD00BFC0F00F4080B582B000AF0346B3
S214001ED0FB71FB791A46112103480FF0D0F800BFBA
S214001EE00837BD4680BD00BF00F00F402DE9F04F1B
S214001EF083B000AF0020FEF741FF0346FB800023BF
S214001F00BB80F9884FF000020B4614464FEA441B8C
S214001F104BEAD36B4FEA431A53465C465B1A64EBB4
S214001F2002044FEA840949EA93794FEA8308434654
S214001F304C465B1844EB0204A60146EA93669D01F4
S214001F402B4634461846214640F233324FF0000303
S214001F50FEF794FA03460C46BB80BB8818460C373F
S214001F60BD46BDE8F08F2DE9F04F83B000AF0120ED
S214001F70FEF704FF0346FB800023BB80F9884FF082
S214001F8000020B4614464FEA441B4BEAD36B4FEA5B
S214001F90431A53465C465B1A64EB02044FEA840914
S214001FA049EA93794FEA830843464C465B1844EB6C
S214001FB00204A60146EA93669D012B46344618465F
S214001FC0214640F233324FF00003FEF757FA03463D
S214001FD00C46BB80BB8818460C37BD46BDE8F08F64
S214001FE080B584B000AF0346FB710023FB73FB791A
S214001FF0012B0AD0022B0ED0002B00D011E01720A8
S214002000FEF7BCFE0346FB730BE01820FEF7B6FE99
S2140020100346FB7305E01620FEF7B0FE0346FB738F
S21400202000BFFB7B9BB218461037BD4680BD80B410
S21400203083B000AF0346FB7100BF0C37BD465DF8AA
S214002040047B704790B587B000AF0346FB804FF621
S214002050FF73BB827E237B820023FB822A4BFB60BE
S2140020600023BB60FB8840F6B83202FB03F2FB8815
S214002070C3F57F630F33B2FBF3F3BB607B8ABA68AA
S214002080F9681846FEF7F8FE0346BB827A8ABB8AD2
S2140020909A4203D140F25233FB822FE0BB8A002BD8
S2140020A003D14FF67063FB8228E0BB8A1A46920083
S2140020B013445B0099B2BB8A9B00FA6813441B6802
S2140020C0BA68D21A13469B0013445B001C46BB8AB0
S2140020D003F18043013B9B00FA6813441A68BB8AED
S2140020E09B00F86803441B68D31AB4FBF3F39BB257
S2140020F0CB1A9BB2A3F5C8739BB2FB82B7F9163016
S21400210018461C37BD4690BD9867010090B587B04D
S21400211000AF0346FB804FF6FF73BB8217237B821C
S2140021200023FB822C4BFB600023BB60FB8840F641
S214002130B83202FB03F2FB88C3F57F630F33B2FBB2
S214002140F3F3BB607B8ABA68F9681846FEF794FE1C
S2140021500346BB827A8ABB8A9A4203D14FF44873FD
S214002160FB8232E0BB8A002B03D14FF6D463FB829E
S2140021702BE0BB8A1A46920013441A4691001A4670
S2140021800B4613445B009AB2BB8A9B00F9680B446B
S2140021901B68B968CB1A322101FB03F1BB8A03F135
S2140021A08043013B9B00F86803441868BB8A9B0089
S2140021B0FC6823441B68C31AB1FBF3F39BB2D31A23
S2140021C09BB2A3F596739BB2FB82B7F916301846FE
S2140021D01C37BD4690BD00BF3862010090B587B081
S2140021E000AF0346FB804FF6FF73BB8213237B8250
S2140021F00023FB822C4BFB600023BB60FB8840F671
S214002200B83202FB03F2FB88C3F57F630F33B2FBE1
S214002210F3F3BB607B8ABA68F9681846FEF72CFEB3
S2140022200346BB827A8ABB8A9A4203D14FF4AF63D5
S214002230FB8232E0BB8A002B03D14FF6D463FB82CD
S2140022402BE0BB8A1A46920013441A4691001A469F
S2140022500B4613449B009AB2BB8A9B00F9680B445A
S2140022601B68B968CB1A642101FB03F1BB8A03F132
S2140022708043013B9B00F86803441868BB8A9B00B8
S214002280FC6823441B68C31AB1FBF3F39BB2D31A52
S2140022909BB2A3F596739BB2FB82B7F9163018462D
S2140022A01C37BD4690BD00BF9462010090B587B054
S2140022B000AF0346FB804FF6FF73BB827E237B8214
S2140022C00023FB822A4BFB600023BB60FB8840F6A2
S2140022D0B83202FB03F2FB88C3F57F630F33B2FB11
S2140022E0F3F3BB607B8ABA68F9681846FEF7C4FD4C
S2140022F00346BB827A8ABB8A9A4203D140F25233A3
S214002300FB822FE0BB8A002B03D14FF67063FB8263
S21400231028E0BB8A1A46920013445B0099B2BB8A37
S2140023209B00FA6813441B68BA68D21A13469B00CF
S21400233013445B001C46BB8A03F18043013B9B00B1
S214002340FA6813441A68BB8A9B00F86803441B6843
S214002350D31AB4FBF3F39BB2CB1A9BB2A3F5C873A4
S2140023609BB2FB82B7F9163018461C37BD4690BDA7
S214002370E062010090B587B000AF0346FB804FF6E1
S214002380FF73BB82B0237B820023FB822A4BFB6059
S2140023900023BB60FB8840F6B83202FB03F2FB88E2
S2140023A0C3F57F630F33B2FBF3F3BB607B8ABA6877
S2140023B0F9681846FEF760FD0346BB827A8ABB8A38
S2140023C09A4203D140F24653FB822FE0BB8A002B91
S2140023D003D14FF67063FB8228E0BB8A1A46920050
S2140023E013445B0099B2BB8A9B00FA6813441B68CF
S2140023F0BA68D21A13469B0013445B001C46BB8A7D
S21400240003F18043013B9B00FA6813441A68BB8AB9
S2140024109B00F86803441B68D31AB4FBF3F39BB223
S214002420CB1A9BB2A3F5C8739BB2FB82B7F91630E2
S21400243018461C37BD4690BDD864010090B587B0DD
S21400244000AF0346FB804FF6FF73BB827E237B8282
S2140024500023FB822A4BFB600023BB60FB8840F610
S214002460B83202FB03F2FB88C3F57F630F33B2FB7F
S214002470F3F3BB607B8ABA68F9681846FEF7FCFC83
S2140024800346BB827A8ABB8A9A4203D140F2523311
S214002490FB822FE0BB8A002B03D14FF67063FB82D2
S2140024A028E0BB8A1A46920013445B0099B2BB8AA6
S2140024B09B00FA6813441B68BA68D21A13469B003E
S2140024C013445B001C46BB8A03F18043013B9B0020
S2140024D0FA6813441A68BB8A9B00F86803441B68B2
S2140024E0D31AB4FBF3F39BB2CB1A9BB2A3F5C87313
S2140024F09BB2FB82B7F9163018461C37BD4690BD16
S2140025009867010080B582B000AF0023FB800023EF
S214002510BB800920FEF732FC0346FB80FB8818468A
S214002520FFF790FD0346BB801A4B1B78012B05D1A5
S214002530184B00221A70184ABB881380B7F904306B
S214002540154AB2F900209B1A13F1040F0EDBB7F9F7
S2140025500430114AB2F900209B1A042B06DC0E4AFE
S214002560BB8813800D4B00221A700CE00B4B1B78B7
S2140025700133DAB2094B1A70084B1B78032B02D9C9
S214002580054ABB881380044BB3F900301846083759
S214002590BD4680BD2C86FF1FB6000020B800002078
S2140025A080B582B000AF0023FB800023BB800A20EA
S2140025B0FEF7E4FB0346FB80FB881846FFF7A6FD04
S2140025C00346BB801A4B1B78012B05D1184B002203
S2140025D01A70184ABB881380B7F90430154AB2F946
S2140025E000209B1A13F1040F0EDBB7F90430114AD2
S2140025F0B2F900209B1A042B06DC0E4ABB88138017
S2140026000D4B00221A700CE00B4B1B780133DAB22C
S214002610094B1A70084B1B78032B02D9054ABB8856
S2140026201380044BB3F9003018460837BD4680BD0A
S2140026302D86FF1FBA000020BC00002080B584B0A5
S21400264000AF0346FB710023FB810023BB81FB79AF
S214002650002B02D0012B06D00BE00B20FEF78EFBE2
S2140026600346FB8105E00C20FEF788FB0346FB8152
S21400267000BFFB891846FFF7B1FD0346BB811B4B25
S2140026801B78012B06D1194B00221A70184ABB89F9
S214002690138023E0164BB3F9003007EE903AB8EEFD
S2140026A0E77A144BD3ED007AF7EE006A76EEE77A17
S2140026B027EE277AB7F90C3007EE903AF8EEE76A7D
S2140026C00C4BD3ED007A66EEA77A77EE277AFDEE0E
S2140026D0E77A17EE903A1AB2054B1A80044BB3F914
S2140026E0003018461037BD4680BD00BF2E86FF1F3F
S2140026F0BE0000203086FF1F80B582B000AF0023EA
S214002700FB800023BB800D20FEF738FB0346FB80D2
S214002710FB881846FFF7CAFD0346BB801A4B1B789A
S214002720012B05D1184B00221A70184ABB8813805B
S214002730B7F90430154AB2F900209B1A13F1040FBA
S2140027400EDBB7F90430114AB2F900209B1A042BAD
S21400275006DC0E4ABB8813800D4B00221A700CE074
S2140027600B4B1B780133DAB2094B1A70084B1B78F7
S214002770032B02D9054ABB881380044BB3F90030FB
S21400278018460837BD4680BD3486FF1FC0000020AF
S214002790C200002080B582B000AF0023FB8000237B
S2140027A0BB800F20FEF7EAFA0346FB80FB8818463C
S2140027B0FFF744FE0346BB801A4B1B78012B05D15E
S2140027C0184B00221A70184ABB881380B7F90430D9
S2140027D0154AB2F900209B1A13F1040F0EDBB7F965
S2140027E00430114AB2F900209B1A042B06DC0E4A6C
S2140027F0BB8813800D4B00221A700CE00B4B1B7825
S2140028000133DAB2094B1A70084B1B78032B02D936
S214002810054ABB881380044BB3F9003018460837C6
S214002820BD4680BD3586FF1FC4000020C6000020C0
S21400283080B584B000AF0346FB710023FB81002304
S214002840BB81FB79012B0AD0022B0ED0002B00D0C7
S21400285011E00E20FEF792FA0346FB810BE01020F3
S214002860FEF78CFA0346FB8105E01A20FEF786FA8F
S2140028700346FB8100BFFB891846FFF77BFD034636
S214002880BB811B4B1B78012B05D1194B00221A70FC
S214002890184ABB891380B7F90C30164AB2F90020E3
S2140028A09B1A13F1040F0EDBB7F90C30114AB2F97C
S2140028B000209B1A042B06DC0E4ABB8913800E4BA5
S2140028C000221A700CE00C4B1B780133DAB20A4B6C
S2140028D01A70094B1B78032B02D9064ABB89138052
S2140028E0044BB3F9003018461037BD4680BD00BF14
S2140028F03686FF1FC8000020CA00002080B582B0C0
S21400290000AF0023FB800023BB801920FEF736FAB9
S2140029100346FB80FB881846FFF7F8FB0346BB80A0
S2140029201A4B1B78012B05D1184B00221A70184A37
S214002930BB881380B7F90430154AB2F900209B1AF9
S21400294013F1040F0EDBB7F90430114AB2F9002078
S2140029509B1A042B06DC0E4ABB8813800D4B002204
S2140029601A700CE00B4B1B780133DAB2094B1A7065
S214002970084B1B78032B02D9054ABB881380044BEF
S214002980B3F9003018460837BD4680BD3786FF1FAE
S214002990CC000020CE00002080B582B000AF0346F9
S2140029A0FB71FB79012B05D10022082108480EF0A7
S2140029B066FB04E00122082105480EF060FBFB7967
S2140029C01846FEF797FF00BF0837BD4680BD00BF1C
S2140029D080F00F4080B582B000AF0346FB71FB79F4
S2140029E0012B05D10022092108480EF048FB04E01F
S2140029F00122092105480EF042FBFB791846FEF736
S214002A0063FF00BF0837BD4680BD00BF80F00F40A3
S214002A1080B582B000AF0346FB71FB79012B05D170
S214002A200022072108480EF02AFB04E001220721B5
S214002A3005480EF024FBFB791846FEF771FF00BF31
S214002A400837BD4680BD00BF00F10F402DE9F04FAE
S214002A5085B000AF0346FB710023FB810023BB81DA
S214002A60FB79002B02D0012B06D00BE00720FEF7E7
S214002A7085F90346FB8105E00820FEF77FF903464B
S214002A80FB8100BFF9894FF000020B4614464FEA5F
S214002A90441B4BEAD36B4FEA431A53465C465B1A19
S214002AA064EB02044FEA840949EA93794FEA830803
S214002AB043464C465B1844EB0204E60046EA53766F
S214002AC0DD002B4634461846214640F233324FF09E
S214002AD00003FDF7D3FC03460C46BB81BB891846B2
S214002AE01437BD46BDE8F08F80B582B000AF002336
S214002AF0FB710023FB7107E0FB790221184600F00A
S214002B000BF8FB790133FB71FB79012BF4D900BF7D
S214002B100837BD4680BD000080B584B000AF0346D0
S214002B200A46FB711346BB7146F2A813FB60FB799D
S214002B30012B7AD8FB793F49BA7901F81320BB7983
S214002B40012B21D0022B39D0002B00D053E0FB798B
S214002B501846FFF77BFF03461A4641F2F7139A42E0
S214002B6003D84CF25033FB6045E0FB791846FFF77C
S214002B706DFF0346B3F5965F02D90023FB603AE08B
S214002B8046F2A813FB6036E0FB791846FFF75EFFB7
S214002B900346C72B03D84CF25033FB602BE0FB797F
S214002BA01846FFF753FF0346B3F5C87F02D9002344
S214002BB0FB6020E046F2A813FB601CE0FB79184699
S214002BC0FFF744FF0346B3F5166F03D24CF25033BB
S214002BD0FB600FE0FB791846FFF738FF03461A46FE
S214002BE040F628239A4202D90023FB6002E046F210
S214002BF0A813FB6000BFFB79002B02D0012B0AD084
S214002C0013E0FA6801210C4810F0CCF9BB7918469D
S214002C10FEF79CFE09E0FA680021074810F0C2F9AA
S214002C20BB791846FEF7A8FE00BF00BF1037BD46AA
S214002C3080BD00BFD0000020F448002080B582B0E0
S214002C4000AF0023FB7146F2A8133B600023FB7124
S214002C5073E0FB793C4A12F81330012B21D0022B8B
S214002C6039D0002B00D053E0FB791846FFF7EEFE74
S214002C7003461A4641F2F7139A4203D84CF25033F1
S214002C803B6045E0FB791846FFF7E0FE0346B3F5E8
S214002C90965F02D900233B603AE046F2A8133B60F9
S214002CA036E0FB791846FFF7D1FE0346C72B03D85C
S214002CB04CF250333B602BE0FB791846FFF7C6FE1C
S214002CC00346B3F5C87F02D900233B6020E046F2F6
S214002CD0A8133B601CE0FB791846FFF7B7FE0346D7
S214002CE0B3F5166F03D24CF250333B600FE0FB791E
S214002CF01846FFF7ABFE03461A4640F628239A42CC
S214002D0002D900233B6002E046F2A8133B6000BFF6
S214002D10FB79002B02D0012B06D00BE03A6801218C
S214002D200A4810F03FF905E03A680021074810F01D
S214002D3039F900BFFB790133FB71FB79012B88D988
S214002D4000BF0837BD4680BDD0000020F4480020F4
S214002D5080B483B000AF0346FB7100BF0C37BD469E
S214002D605DF8047B704780B483B000AF0346FB7108
S214002D70FB79DBB2002B01D100BEFEE700BF0C37AB
S214002D80BD465DF8047B704780B400AF002318464C
S214002D90BD465DF8047B704780B586B000AF03463D
S214002DA0FB710B46BB7113467B71FB79002B0CBF86
S214002DB001230023DBB21846FFF7D5FFBB79042BAF
S214002DC094BF01230023DBB21846FFF7CCFFFA7945
S214002DD01346DB0013449B001D4A13443B613B69CA
S214002DE0DB78002B2FD03B699A69BB79DB00134454
S214002DF01B787A799A4226D87B79FB75FA7914493A
S214002E001346DB0013449B000B441D331B781A4605
S214002E101346DB009B1A9B000E4A1344FB60FB68BC
S214002E201A78FB685A70FB68BA791A70FB7D002B1B
S214002E3001D10123FB75FB685A68BB791344FA7D00
S214002E40013AD2B21A7000BF1837BD4680BD00BF27
S214002E502C6D0100E849002080B487B000AF03461F
S214002E60FB71FA7932491346DB0013449B000B448E
S214002E701D331B781A461346DB009B1A9B002D4A0F
S214002E8013443B613B695B8A4FF6FF72934224D042
S214002E903B691B7DFB733B695B8ABB81FB7B082B15
S214002EA017D8FA7BBB891344072B12D80023FB756F
S214002EB00BE0BA89FB7D1344FA7D39690A44517ADE
S214002EC01D4AD154FB7D0133FB75FA7DFB7B9A428C
S214002ED0EFD33B694FF6FF725A823B69DB8AFF2BC2
S214002EE020D03B691B7EFB733B69DB8ABB81FB7B87
S214002EF0022B17D8FA7BBB891344022B12D8002367
S214002F00FB7508E0BA89FB7D13440C4AFF21D154B7
S214002F10FB7D0133FB75FA7DFB7B9A42F2D33B695E
S214002F20FF22DA8200BF1C37BD465DF8047B70477F
S214002F302C6D0100E84900201088FF1F1888FF1F2D
S214002F4080B48DB000AF0346FB710B46BB711346D1
S214002F507B71FA7958491346DB0013449B000B44F7
S214002F601D331B781A461346DB009B1A9B00534AF8
S214002F701344BB62BB793C2B45D1BB6A1B7887F8F0
S214002F802730FA794C491346DB0013449B000B4468
S214002F9018331A6897F82730DB0013443B623B6A05
S214002FA05B78022B00F08180BB6A5A6897F827305E
S214002FB01344FB61FB795B01414A1344BB613B6AE6
S214002FC05A68FB691B7819460B469B000B445B004E
S214002FD013447B61002387F82F300FE0BB695A68E3
S214002FE097F82F30134497F82F2079690A4492787F
S214002FF01A7097F82F30013387F82F3097F82F3054
S214003000072BEBD951E0FA791346DB0013449B00FB
S214003010294A13443B613B699A687B791B01134438
S2140030209B78002B41D13B699A687B791B0113443E
S2140030305B78FB733B699A687B791B0113449B881A
S214003040BB857B791F4AD35CBB73002387F82F3080
S21400305026E0BA7B97F82F3022FA03F303F0010339
S214003060002B0BD097F82F3097F82F2016498A5C44
S214003070D1B2BA6A13440A465A7209E097F82F305A
S214003080BA8D12498A5CD1B2BA6A13440A465A7299
S214003090BB8D0133BB8597F82F30013387F82F306F
S2140030A097F82F20FB7B9A42D3D300BF3437BD4618
S2140030B05DF8047B704700BF2C6D0100E8490020D6
S2140030C0C8490020E0480020D44800201088FF1F90
S2140030D080B58AB000AF0346FB71FB79002B0CBFAE
S2140030E001230023DBB21846FFF73DFE00233B77A3
S2140030F0FB794C2202FB03F3854A1344BB61FA7941
S2140031001346DB0013449B00824A13447B61FB7921
S2140031105B01814A13443B617B69DB78002B00F03E
S214003120F180FA797B491346DB0013449B000B447D
S2140031301D331B781A461346DB009B1A9B00774A02
S2140031401344FB60FB791846FFF786FEFB681B7886
S2140031507B773B691B7BBB77BB6993F83730012BCA
S21400316012D13B699B7D012B0ED1BB7F3D2B0BD132
S214003170FB685B787B77FB687A7F1A70FB685A6817
S2140031807B7F134400221A707B699A697B7FDB0081
S21400319013447B62FB685A687B7F13443B627B6AFE
S2140031A05B78002B00F097803B691B7D002B40F07E
S2140031B084807B691B78012B1AD0FB681B7A002B56
S2140031C016D0BA7FFB791146184600F099FEFB68C8
S2140031D01B787B777B699A697B7FDB0013447B6275
S2140031E0FB685A687B7F13443B62FB6800221A72B6
S2140031F07B6A5A683B6A1B7819460B469B000B4451
S2140032005B0013445A783B691A757B6A5A683B6AB6
S2140032101B7819460B469B000B445B0013441B7837
S214003220FB77FB7F7A6952799B1A7A691279934207
S21400323009DA7B691A69FB7F796949795B1A013378
S21400324013441B78BB777B699A68FB7F1B0113448A
S2140032501B78102B0FD1FA7FFB791146184600F029
S214003260C5FB0346BB77BA7FFB791146184600F0CC
S21400327099FC0346FB77BB7FFF2B0ED0FB7F032B0F
S2140032800BD8FA7FB97FFB791846FFF759FEBA7F4D
S214003290FB791146184601F053F93B6A1B78013357
S2140032A0DAB23B6A1A703B6A1A787B6A1B789A42D3
S2140032B003D3FB79184600F031FB3B691B7D013BCD
S2140032C0DAB23B691A753B691B7D002B03D13B6A5A
S2140032D01B7801333B777B691B78012B0AD0032BC5
S2140032E002D0002B00D00AE0FB790021184600F03F
S2140032F057FE04E0FB79184600F0A8FD00BF3B69C6
S214003300BA7F1A733B7F18462837BD4680BD00BF7C
S2140033107C4900202C6D0100C8490020E8490020A7
S21400332080B586B000AF0346FB71FB79002B0CBF5F
S21400333001230023DBB21846FFF715FDFB795B017E
S214003340284A13447B61FA791346DB0013449B003A
S214003350254A13443B617B6900229A75FB7918461F
S21400336001F030F80346FB73FB7B83F00103DBB20E
S214003370002B32D03B69DB78002B2ED03B695B7F7D
S2140033801A461346DB009B1A9B00184A1344BB6080
S214003390BB68FF22DA82BB684FF6FF725A82BB68B0
S2140033A000221A76BB6800221A75BB68104A5A605B
S2140033B0BB6801225A76BB6800229A76BB681A78E8
S2140033C0BB685A703B69DA7DBB681A70BB685B687D
S2140033D03A69D27D134400221A70FB7B18461837D0
S2140033E0BD4680BDC84900202C6D0100E84900207C
S2140033F0D400002080B483B000AF0346FB710B46B8
S214003400BB7113467B71002318460C37BD465DF82A
S214003410047B704780B582B000AF0346FB710B4655
S214003420BB7113467B71BB79082B36D801A252F8C4
S21400343023F000BF593400006734000075340000E4
S2140034408D3400008D3400008D3400008D34000073
S2140034508D340000833400007A79FB7911461846D3
S21400346000F020F81AE07A79FB791146184600F049
S2140034706FF913E07A79FB791146184600F092F856
S2140034800CE0FB79184600F03BFA07E07A79B97948
S214003490FB79184600F0EEF900E000BF00BF0837E1
S2140034A0BD4680BD80B588B000AF03460A46FB71B6
S2140034B01346BB710023FB77FA791346DB001344EF
S2140034C09B00364A1344BB61FB795B01344A1344C4
S2140034D07B61BA79FB791146184600F063FB034618
S2140034E0FB74BB699A68FB7C1B011344FB60FB7C86
S2140034F0FF2B33D00123FB77BB790021184600F061
S2140035004DFF03461A467B695A73FB681B78012BEE
S21400351021D0112B0FD0002B00D01FE0FB689B782A
S214003520002B1AD1BA79FB791146184600F070FBC9
S2140035300223FB7711E0BB691B78022B08D0BA790F
S214003540FB791146184600F02BFC0346FB7705E096
S2140035500023FB7702E000BF00E000BFFB7F012BEB
S21400356002D0022B08D00FE0FB685A78FB79114690
S214003570184601F0C7F80CE0FB685A78FB7911464C
S214003580184601F06FF804E0FB79184601F01EF8C3
S21400359000BF00BF2037BD4680BD00BF2C6D0100B8
S2140035A0C849002080B588B000AF03460A46FB71C4
S2140035B01346BB71FA791346DB0013449B005F4A3F
S2140035C01344BB61FB795B015D4A13447B617B69F5
S2140035D001225A727B699B7BFF2B05D07B699B7B04
S2140035E00133DAB27B699A737B699B7B012B06D920
S2140035F07B69DB7B002B02D17B690122DA73BA7907
S214003600FB791146184600F0CDFA0346FB77FB7FA0
S214003610032B00F28F80BB699A68FB7F1B01134463
S2140036201B78012B0BD0112B21D0002B00D032E0C1
S214003630BA79FB791146184600F044FB2BE0BA79BC
S214003640FB791146184600F067FD7B695B681B78BE
S2140036500121184600F0A2FE0346FB74FA7CFB79B3
S2140036601146184600F09EFA0346FB7713E07B6986
S2140036705B681B78002B07D17B690122DA72FB7925
S214003680184600F0C9FF05E0BA79FB790321184611
S214003690FFF7B0FE00BFFB7F032B4BD8FB7F294A0A
S2140036A00121D154BB69DB7883F00103DBB2002B28
S2140036B01FD0BB699A68FB7F1B011344DB88BB8362
S2140036C0BB699A68FB7F1B0113441B7ABB740023FB
S2140036D0BB7709E0BB8B1C4AFF21D154BB8B01335F
S2140036E0BB83BB7F0133BB77BA7FBB7C9A42F1D3E7
S2140036F020E0FA7911491346DB0013449B000B4483
S2140037001D331B781A461346DB009B1A9B000F4A94
S2140037101344FB60BB699A68FB7F1B011344DA887D
S214003720FB68DA82BB699A68FB7F1B0113441A7A2E
S214003730FB681A7600BF2037BD4680BD2C6D0100A1
S214003740C8490020DC4800201888FF1FE8490020F0
S21400375080B586B000AF03460A46FB711346BB71C0
S214003760FA791346DB0013449B003E4A13447B6100
S214003770FB795B013C4A13443B613B6901225A7268
S2140037803B699B7BFF2B05D03B699B7B0133DAB201
S2140037903B699A733B699B7B012B06D93B69DB7BB4
S2140037A0002B02D13B690122DA737B69DB78002BA0
S2140037B023D0BB793C2B20D1FA792A491346DB006B
S2140037C013449B000B441D331B781A461346DB003C
S2140037D09B1A9B00254A1344FB607B699A69FB6829
S2140037E01B78DB0013445B78002B06D13B69012273
S2140037F0DA72FB79184600F00FFFBA79FB791146AA
S214003800184600F0CFF90346FB727B69DB78002B85
S21400381006D0BB793C2B03D13B699B7D012B09D09D
S2140038207B69DB7883F00103DBB2002B08D0BB7921
S2140038303D2B05D1BA79FB7902211846FFF7DAFD50
S214003840FB7A032B09D8FA7AFB791146184600F062
S21400385041F9FB7A064A0121D15400BF1837BD460C
S21400386080BD00BF2C6D0100C8490020E84900203B
S214003870DC48002080B584B000AF0346FB710B46E1
S214003880BB7113467B71FB795B011C4A1344FB60DA
S214003890FB689B7BFF2B05D0FB689B7B0133DAB272
S2140038A0FB689A73FB689B7B012B06D9FB68DB7B66
S2140038B0002B02D1FB680122DA73BB79032B13D0ED
S2140038C0032B13DB072B11DCFB6801229A727B7932
S2140038D03C2B02D07B793D2B0AD17A79FB790421E7
S2140038E01846FFF787FD03E000BF02E000BF00E0D8
S2140038F000BF00BF1037BD4680BD00BFC8490020CE
S21400390080B582B000AF0346FB71FB79184600F025
S21400391083FE00BF0837BD4680BD000080B586B078
S21400392000AF0346FB71FA791346DB0013449B0095
S2140039302C4A13447B61FA792A491346DB00134468
S2140039409B000B441D331B781A461346DB009B1A5C
S2140039509B00254A13443B613B69FB603B6901338E
S214003960BB607B699A693B691B78DB0013445B7814
S214003970013B032B31D801A252F823F0A7390000EF
S21400398097390000C33900008D390000BB681A78EB
S214003990FB681A7022E03B695B68FA681278134489
S2140039A000221A701AE0FB79002206211846FFF75B
S2140039B021FD3B695B68FA681278134400221A708E
S2140039C00CE07B69DA7DFB681A703B695B68FA6815
S2140039D01278134400221A7000E000BF00BF1837A8
S2140039E0BD4680BD2C6D0100E849002080B487B03C
S2140039F000AF03460A46FB711346BB710023FB82E9
S214003A000023BB7400237B7500237B74FF23FB74A9
S214003A10FA791346DB0013449B002C4A1344FB60E0
S214003A20FB689A68BB791B011344DB68BB60002304
S214003A303B753CE0BB685A683B7D13441B787B743F
S214003A40FB689A687B7C1B011344DB88FB82FB685F
S214003A509A687B7C1B0113441B7ABB7400237B751E
S214003A601BE0FB8A5A1CFA821A46194B9B5CDBB297
S214003A70FF2B0FD0FB681A69BB6859683B7D0B4467
S214003A801B781946FB685B79CB1A013313441B7805
S214003A90FB7406E07B7D01337B757A7DBB7C9A42A6
S214003AA0DFD3FB7CFF2B08D13B7D01333B75BB6826
S214003AB01B783A7D9A42BDD300E000BFFB7C1846D7
S214003AC01C37BD465DF8047B704700BF2C6D0100B7
S214003AD01888FF1F80B487B000AF03460A46FB7104
S214003AE01346BB71FA791346DB0013449B002B4A3E
S214003AF013443B613B699A68BB791B011344FB6026
S214003B00FB681B78002B16D1FB68DB88FB82FB6802
S214003B101B7AFB7200237B7509E0FB8A204AFF2193
S214003B20D154FB8A0133FB827B7D01337B757A7D22
S214003B30FB7A9A42F1D33B699A68BB791B0113441E
S214003B401B78012B23D1FB68DB685B681B78BB7294
S214003B503B699A68BB7A1B011344DB88FB823B698E
S214003B609A68BB7A1B0113441B7AFB7200237B7591
S214003B7009E0FB8A0A4AFF21D154FB8A0133FB8203
S214003B807B7D01337B757A7DFB7A9A42F1D300BF49
S214003B901C37BD465DF8047B704700BF2C6D0100E6
S214003BA01888FF1F80B485B000AF03460A46FB7135
S214003BB01346BB71FF23BB73FA791346DB0013442D
S214003BC09B00124A1344BB60BB681B79FB7312E070
S214003BD0BB681A69FB7B13441B78BA799A4207D1F3
S214003BE0BB685A79FB7B1344DBB2013BBB7305E031
S214003BF0FB7B013BFB73FB7B002BE9D1BB7B1846B1
S214003C001437BD465DF8047B704700BF2C6D01007D
S214003C1080B588B000AF03460A46FB711346BB71F9
S214003C20FA791346DB0013449B00234A1344BB6116
S214003C30FB795B01214A13447B61BA79FB79114613
S214003C401846FFF7AFFF0346FB74FB7CFF2B2ED016
S214003C507B695B68FB60BB699A68FB7C1B0113444D
S214003C605A787B691A72FA7913491346DB001344B3
S214003C709B000B441D331B781A461346DB009B1A29
S214003C809B000F4A1344BB600023FB770AE0FB7FD0
S214003C90FA681344FA7FB9680A44527A1A70FB7FAE
S214003CA00133FB777B691B7AFA7F9A42EFD300BF1A
S214003CB02037BD4680BD00BF2C6D0100C8490020DE
S214003CC0E849002080B58AB000AF03460A46FB717B
S214003CD01346BB71FA791346DB0013449B002D4A4A
S214003CE013443B62FB795B012B4A1344FB61BA79B0
S214003CF0FB7911461846FFF755FF0346FB76FB7E19
S214003D00FF2B43D0FB695B687B613B6A9A68FB7E4E
S214003D101B0113445A78FB691A723B6A9A68FB7E49
S214003D201B0113449B887B82FA791A491346DB00F1
S214003D3013449B000B441D331B781A461346DB00C6
S214003D409B1A9B00154A1344FB60FB687A8A5A82CA
S214003D50FB691A7AFB681A75002387F827300FE08C
S214003D6097F8273097F8272079690A441178FA6877
S214003D7013440A465A7297F82730013387F82730DB
S214003D80FB691B7A97F827209A42E9D300BF2837A9
S214003D90BD4680BD2C6D0100C8490020E8490020C2
S214003DA080B586B000AF03460A46FB711346BB716A
S214003DB00023FB75FA791346DB0013449B00214A67
S214003DC013443B61BA79FB7911461846FFF7EAFEC1
S214003DD00346FB733B699A68FB7B1B011344BB607D
S214003DE0BB689B78002B1FD10223FB75BB793C2B4D
S214003DF00ED1FB79144A5B01134416331B78012B52
S214003E001AD1BA79FB7900211846FFF7F3FA13E0C6
S214003E10BA79FB7901211846FFF7ECFA0346012B25
S214003E200AD10023FB7507E0BA79FB79072118460B
S214003E30FFF7E0FA0123FB75FB7D18461837BD46F1
S214003E4080BD00BF2C6D0100C849002080B487B03B
S214003E5000AF0346FB71FB795B01284A13447B6184
S214003E607B699B7AFB747B6900229A727B695B7A1A
S214003E70BB747B69DB7B7B747B691033FB60FB6800
S214003E801B78C3F30003DBB21A46FB7C1343DBB29A
S214003E9003F00103D9B2FA68137861F300031370D4
S214003EA0FB681B78C3F34003DBB21A46BB7C1343A4
S214003EB0DBB203F00103D9B2FA68137861F3410369
S214003EC013707B7C03F00103D9B2FA68137861F3B0
S214003ED0820313707B695A7BFB685A707B69DB7AB6
S214003EE0002B04D0FA68137843F00803137000BF61
S214003EF01C37BD465DF8047B704700BFC8490020EC
S214003F0080B586B000AF03460A46FB711346BB7108
S214003F10FA791346DB0013449B001F4A13447B6167
S214003F20FA791D491346DB0013449B000B441D33EE
S214003F301B781A461346DB009B1A9B00174A13444D
S214003F403B61BA79FB7911461846FFF72BFE03460C
S214003F50FB73FB7BFF2B1BD07B69DB78002B17D01A
S214003F603B691B78BB733B69BA7B5A707B699A685E
S214003F70FB7B1B011344DB68BB60BB681A7A3B699A
S214003F801A703B695B683A691278134400221A700B
S214003F9000BF1837BD4680BD2C6D0100E8490020E3
S214003FA080B489B000AF03460A46FB711346BB7166
S214003FB0FB795B01554A1344FB61FA791346DB0033
S214003FC013449B00524A1344BB61FB699B7AFB7502
S214003FD0FB6900229A72FB695B7ABB75FB695B7DA5
S214003FE0002B01D0012300E000237B75FB69DB7BFF
S214003FF03B75FB6910333B613B7D03F00103D9B28F
S2140040003A69137861F3820313703B691B78C3F334
S2140040100003DBB21A46FB7D1343DBB203F0010359
S214004020D9B23A69137861F3000313703B691B78C1
S214004030C3F34003DBB21A46BB7D1343DBB203F087
S2140040400103D9B23A69137861F341031370FB692F
S2140040505A7B3B695A70FB69DB7A002B04D03A69BD
S214004060137843F008031370BB79082B04D03A6921
S214004070137843F010031370BB69DB78002B2CD049
S214004080FA7923491346DB0013449B000B441D3387
S2140040901B781A461346DB009B1A9B001D4A1344E6
S2140040A0FB603A6913786FF386131370FB681B780E
S2140040B0FB72BB699A69FB7ADB0013445B78042BBE
S2140040C005D13A69137843F02003137018E03A6973
S2140040D013786FF34513137012E03A6913786FF391
S2140040E0451313707B7D03F00103D9B23A69137848
S2140040F061F3861313703A6913786FF3C71313705E
S21400410000BF2437BD465DF8047B7047C8490020D1
S2140041102C6D0100E849002080B586B000AF03464C
S2140041200A46FB711346BB71FA791346DB0013444B
S2140041309B00254A13443B61BA79FB791146184621
S214004140FFF730FD0346FB73FB7BFF2B37D0FB7975
S2140041501E4A5B01134404331B681B780121184672
S21400416000F01CF90346BB733B699A68FB7B1B0196
S2140041701344DB68BB600023FB751BE03B691A69D0
S214004180BB685968FB7D0B441B7819463B695B7915
S214004190CB1A013313441B78BA7B9A4207D1BA7BF9
S2140041A0FB7911461846FFF78DFD00BF07E0FB7D43
S2140041B00133FB75BB681B78FA7D9A42DED300BFDD
S2140041C01837BD4680BD00BF2C6D0100C8490020D1
S2140041D080B500AF002000F0DDFA0D4B1B68013300
S2140041E00B4A13600A4B1B680A2B05D10020FEF70A
S2140041F06FFF074B00221A60064B1B8801339AB2EA
S214004200044B1A8000200AF009FD00BF80BD00BFE5
S214004210DC000020DA00002080B584B000AF7860B3
S21400422000200AF013FD0346FB600F4B1B881A465E
S2140042304FF4FA6303FB02F31A46FB681A440B4B6F
S2140042401B68D31A4FF47A7202FB03F39A087B6852
S2140042501A60054B00221A80044AFB68136000238C
S21400426018461037BD4680BDDA000020E00000206A
S21400427080B500AF0122052102480CF000FF00BF08
S21400428080BD00BFC0F00F4080B500AFFFF7F0FF65
S2140042900022174900200AF0A3FB002215493A2005
S2140042A009F0A0FD3A2009F001FEFEF76DFD0020A2
S2140042B0FFF736F8002204210020FEF76DFD0E4BB6
S2140042C01B78DBB223F00303DBB243F00103DAB260
S2140042D0094B1A70094B1B78DBB223F00103DAB2E4
S2140042E0064B1A7000200AF0CDFC00BF80BD00BF50
S2140042F0F86D0100D14100001088FF1F1888FF1FCD
S21400430080B483B000AF0346FB71FB79DBB2002BB1
S21400431001D100BEFEE700BF0C37BD465DF8047B4A
S2140043207047000080B483B000AF78607B684FF4BD
S214004330FA7202FB03F3064AB2FBF3F39BB20133B5
S2140043409BB218460C37BD465DF8047B704700BF2D
S2140043508051D60280B485B000AF78600B46FB7003
S214004360FB7801339BB21A46D200D31A5B00FB815E
S214004370FB89094A02FB03F27B684FF4FA7101FBE2
S21400438003F3B2FBF3F39BB201339BB21846143728
S214004390BD465DF8047B704740420F0080B582B092
S2140043A000AF03460A46FB711346BB71BA79FB7928
S2140043B01146184609F000FE034618460837BD4663
S2140043C080BD0000B0B586B000AF0346FB71FB7938
S2140043D0002B0CBF01230023DBB21846FFF790FF2B
S2140043E00123BB82FA791346DB0013449B004B4A39
S2140043F013443B61FB795B01494A1344FB60FA793D
S21400440013469B0013445B00464A1A44FB685A60F6
S214004410FB79454A52F82330BB603B691B6A5B79DF
S214004420002B23D0FC794FF41660FFF77BFF034682
S2140044301A463E4B23F814200123FB7512E0FD7943
S214004440FB7D5C1EFB7D19464FF41660FFF782FF6E
S21400445003461946364AEB00234422F81310FB7D28
S2140044600133FB75FB7D082BE9D926E0FC793B6917
S2140044701B6A1B681846FFF755FF03461A462B4B68
S21400448023F814200123FB7514E0FD79FB7D5C1EE8
S2140044903B691B6A1B68FA7D11461846FFF75AFFF0
S2140044A003461946224AEB00234422F81310FB7DEC
S2140044B00133FB75FB7D082BE7D9FB791C4A1B01F2
S2140044C013440E331A88FB681A833B699A8AFB6882
S2140044D05A833B69196AFA7913465B0013441B0139
S2140044E0144A13441A46B86809F00BFE0346BB820A
S2140044F0BB8A002B07D11049B86809F016FEFB7975
S2140045000E4A0021D154BB8A002B14BF012300237E
S214004510DBB218461837BD46B0BD00BF2C6D010093
S214004520C84900202C0100207C6C010014010020EA
S21400453018010020E400002059490000280100204E
S21400454080B586B000AF03460A46FB711346BB71C2
S214004550FB79002B0CBF01230023DBB21846FFF7C4
S214004560CFFEFB795B01154A13447B6101237B82F6
S214004570FB79134A52F82330FB60FB79114A1B0182
S21400458013440E331A88FB790F4931F813309BB267
S21400459013449AB27B691A83BB791946F86809F006
S2140045A05BFE03467B827B8A002B01D1002300E062
S2140045B0FF2318461837BD4680BD00BFC8490020F7
S2140045C07C6C0100180100201401002080B584B026
S2140045D000AF0346FB71FB79002B0CBF01230023C1
S2140045E0DBB21846FFF78CFE0123FB81FB79094AF4
S2140045F052F82330BB60B86809F0D4FD0346FB814F
S214004600FB89002B01D1002300E0FF23184610375A
S214004610BD4680BD7C6C010080B584B000AF03460B
S214004620FB71FB79002B0CBF01230023DBB218467D
S214004630FFF766FE0123FB81FB79094A52F8233017
S214004640BB60B86809F0D0FD0346FB81FB89002BF0
S21400465001D1002300E0FF2318461037BD4680BD79
S2140046607C6C010080B586B000AF03460A46FB713D
S2140046701346BB71FB79002B0CBF01230023DBB272
S2140046801846FFF73DFE0123FB82BB79082B29D88D
S214004690BB79002B26D0FB79174A5B011344043301
S2140046A01B683B61FB79154A52F82330FB60FB79A7
S2140046B0114A5B0113440833BA791A70FA79BB7948
S2140046C0013B0F49D200134431F813301946F868FD
S2140046D009F0B5FDBB791A463969F86809F036FD68
S2140046E00346FB82FB8A002B01D1002300E0FF2358
S2140046F018461837BD4680BDC84900207C6C0100AE
S2140047001801002080B584B000AF03460A46FB714E
S2140047101346BB71FB79002B0CBF01230023DBB2D1
S2140047201846FFF7EDFD0123FB81FB79164A52F888
S2140047302330BB60BB79082B1BD8BB79002B18D065
S214004740FA79BB79013B1149D200134431F8133092
S2140047501946B86809F073FDFB790D4A5B011344EE
S21400476004331B68BA791946B86809F005FD034694
S214004770FB81FB89002B01D1002300E0FF231846B4
S2140047801037BD4680BD00BF7C6C010018010020BC
S214004790C8490020B0B592B000AF0346FB71FB7964
S2140047A0002B0CBF01230023DBB21846FFF7A8FD41
S2140047B0FB79624A52F823303B64FA796049134623
S2140047C05B0013441B010B4407F10C041D460FCD80
S2140047D00FC40FCD0FC495E80F0084E80F00FB79D7
S2140047E05B01584A1344FB63386C09F01DFDFB79E6
S2140047F0002205211846FEF7FDFD97F82730DBB2AC
S214004800023B072B00F28F8001A252F823F000BF74
S21400481031480000D7480000D7480000D7480000BD
S214004820D74800002749000027490000FF4800003D
S214004830FB6B5B8B5A1E91B2FA6B5183002B13D124
S214004840FB79FF2208211846FEF7E4FDFA793E4977
S2140048501346DB0013449B000B4414331A88FB6B8F
S2140048605A83386C09F0C0FCFB79384AD35C002BBD
S2140048705BD0FB79354A0021D154FC79324B1B6A58
S2140048801B681846FFF74EFD03461A46304B23F8C2
S2140048901420012387F8473018E0FD7997F8473051
S2140048A05C1E294B1B6A1B6897F847201146184662
S2140048B0FFF750FD03461946264AEB00234422F82C
S2140048C0131097F84730013387F8473097F847308A
S2140048D0082BE2D929E0FB6B1B8B5A1E91B2FA6BB0
S2140048E01183002B23D1386C09F08EFCFB79194A12
S2140048F01B0113440E331A88FB6B1A8317E0FB6BFD
S2140049001B8B5A1E91B2FA6B1183002B11D1386C97
S21400491009F048FCFB790F4A1B0113440E331A8832
S214004920FB6B1A8305E000BF04E000BF02E000BF97
S21400493000E000BF00BF4837BD46B0BD7C6C01003C
S214004940E4000020C84900202C6D0100280100204A
S214004950140100201801002080B58AB000AF7860EE
S21400496039603B687B627B6A1B7E87F823300023B6
S214004970FB737B4A7B6813441B7887F8223097F8D2
S21400498022201346DB0013449B00764A1344FB6147
S21400499097F822305B01744A1344BB617B6A9B7EA6
S2140049A0DBB20C2B00F2D08001A252F823F000BF3D
S2140049B0C34A0000494B0000B74A00007F4A000087
S2140049C0494B0000A34A0000E5490000FB490000EF
S2140049D0694A0000534A00003D4A0000114A0000A0
S2140049E0274A00000023FB7597F82320F97D97F8E7
S2140049F022301846FEF70EFDA9E00323FB7597F854
S214004A002320F97D97F822301846FEF703FD9EE036
S214004A100123FB7597F82320F97D97F82230184676
S214004A20FEF7F8FC93E00223FB7597F82320F97D48
S214004A3097F822301846FEF7EDFC88E00523FB7554
S214004A4097F82320F97D97F822301846FEF7E2FC07
S214004A507DE00623FB7597F82320F97D97F8223032
S214004A601846FEF7D7FC72E00423FB7597F8232060
S214004A70F97D97F822301846FEF7CCFC67E097F8E9
S214004A8022303A4A1B0113440E331A8897F8223014
S214004A90374931F813309BB213449AB2BB691A8374
S214004AA055E097F82230314A1B0113440E331A881A
S214004AB0BB691A834BE097F822302E4A0121D15465
S214004AC045E07B6A93F82030DBB2002B3ED0BB6912
S214004AD09B7D012B21D1BB691B7B3D2B1DD197F8FC
S214004AE0222020491346DB0013449B000B441D3351
S214004AF01B781A461346DB009B1A9B001E4A13447B
S214004B003B613B695A783B691A703B695B683A6956
S214004B101278134400221A7018E007F10F031946A2
S214004B20786809F04FFB7B6A9B7ADAB2FB7B9A4285
S214004B300CD90723FB7597F82320F97D97F82230C8
S214004B401846FEF767FC01E000BF00E000BFFB6907
S214004B509A8ABB695A8300BF2837BD4680BD00BF0E
S214004B60786C01002C6D0100C84900201801002057
S214004B701401002028010020E849002080B400AF7E
S214004B804FF0E0224FF0E023D3F8883D43F4700363
S214004B90C2F8883D4FF0E0224FF0E023D3F8343FD0
S214004BA023F08043C2F8343F084B094A5A60074B4B
S214004BB05B68064B42F220121A60044B4FF6FF72F7
S214004BC09A6000BFBD465DF8047B70470020054034
S214004BD020C528D980B48FB000AF3A4B3B633A4B20
S214004BE03B623A4B7B613A4BFB623A4BFB613A4B7A
S214004BF03B613A4BBB623A4BFB603A4B7B623A4BAB
S214004C00BB613A4BBB6009E03B6A1A783B6B1A7093
S214004C103B6B01333B633B6A01333B627A693B6A19
S214004C209A42F1D109E0FB691A78FB6A1A70FB6AAE
S214004C300133FB62FB690133FB613A69FB699A4207
S214004C40F1D105E0BB6A00221A70BB6A0133BB6271
S214004C50FA68BB6A9A42F5D109E0BB691A787B6AA2
S214004C601A70BB690133BB617B6A01337B62BA6829
S214004C70BB699A42F1D10023FB711D4A1D4B9A4233
S214004C8016D000237B630AE01A4A7B6B52F8232077
S214004C9017497B6B41F823207B6B01337B63164BF4
S214004CA09B087A6B9A42EFD3144B114A1A6002E0C3
S214004CB0124B104A1A6000BF3C37BD465DF8047BB5
S214004CC0704700BF0084FF1F186E01004477010084
S214004CD02C8DFF1F44770100447701000000002060
S214004CE07C4A002000000020447701004477010041
S214004CF00080FF1F000000000004000008ED00E038
S214004D0080B483B000AF0346FB71FB79DBB2002BA7
S214004D1001D100BEFEE700BF0C37BD465DF8047B40
S214004D20704780B485B000AF78607B681B6CFB6012
S214004D30FB685B0903F00303FB60FB68DBB2184605
S214004D401437BD465DF8047B704780B485B000AF6D
S214004D5078600B46FB707B681B6CFB60FB6823F07F
S214004D606003FB60FB785B0103F06003FA681343A3
S214004D70FB607B68FA681A6400BF1437BD465DF8AE
S214004D80047B704780B485B000AF78607B685B6C4E
S214004D90FB60FB68DBB2FB60FB68DBB218461437CF
S214004DA0BD465DF8047B704780B485B000AF786080
S214004DB00B46FB70FB78002B01D0FB7800E001234C
S214004DC0FB737B685B6CBB60BB6823F0FF03BB6058
S214004DD0FB7BBA681343BB607B68BA685A6400BF43
S214004DE01437BD465DF8047B704780B485B000AFCD
S214004DF078600B46FB707B681B6CFB60FB6823F0DF
S214004E000C03FB60FB789B0003F00C03FA6813436B
S214004E10FB607B68FA681A6400BF1437BD465DF80D
S214004E20047B704780B485B000AF78600B46FB709B
S214004E307B681B6CFB60FB6823F00303FB60FB785E
S214004E4003F00303FA681343FB607B68FA681A648E
S214004E5000BF1437BD465DF8047B704780B485B04C
S214004E6000AF78607B68D3F89030FB60FB689B09E6
S214004E7003F00103FB60FB68DBB218461437BD463F
S214004E805DF8047B704780B485B000AF78600B4651
S214004E90FB707B68D3F89030FB60FB6823F0400320
S214004EA0FB60FB789B0103F04003FA681343FB604A
S214004EB07B68FA68C3F8902000BF1437BD465DF8DB
S214004EC0047B704780B58AB000AF7860254B3B62A4
S214004ED00023FB61002387F8273007F11403002224
S214004EE01A605A6007F10C0300221A605A603023D9
S214004EF07B614FF44053BB610423FB600C233B6192
S214004F003B6A9A697B689B0007F128010B4453F8BB
S214004F10143C1A407B689B0007F128010B4453F8A9
S214004F201C3C22FA03F3FB61FB69012B08D0012B22
S214004F3002D3022B08D00BE0002387F827300BE0C3
S214004F40012387F8273007E0022387F8273003E09D
S214004F500020FFF7D5FE00BF97F827301846283701
S214004F60BD4680BD0080044080B586B000AF786046
S214004F700B46FB701D4B3B6107F1080300221A60CD
S214004F805A603023BB604FF44053FB6000237B61C4
S214004F903B699A697B689B0007F118010B4453F83C
S214004FA0103CDB4313407B617B68002B02D0012B57
S214004FB008D00FE0FB781B0103F030037A69134337
S214004FC07B610BE0FB781B0303F440537A691343C1
S214004FD07B6103E00020FFF793FE00BF3B697A6920
S214004FE09A6100BF1837BD4680BD00BF00800440F0
S214004FF080B586B000AF78600B46FB701C4B3B61FB
S21400500007F1080300221A605A600123BB604FF4C0
S2140050108073FB6000237B613B699A697B689B0019
S21400502007F118010B4453F8103CDB4313407B6137
S2140050307B68002B02D0012B07D00EE0FB7803F034
S21400504001037A6913437B610BE0FB781B0203F4D0
S21400505080737A6913437B6103E00020FFF750FEFC
S21400506000BF3B697A699A6100BF1837BD4680BDAC
S2140050700080044080B485B000AF78600B46FB70BB
S2140050807B68D3F89030FB60FB6823F00403FB607A
S214005090FB78002B01D0042300E00023FA681343BA
S2140050A0FB607B68FA68C3F8902000BF1437BD46E3
S2140050B05DF8047B704780B485B000AF78600B461F
S2140050C0FB707B68D3F89030FB60FB6823F003032B
S2140050D0FB60FB7803F00303FA681343FB607B680E
S2140050E0FA68C3F8902000BF1437BD465DF8047B0D
S2140050F0704780B485B000AF78600B46FB707B6865
S214005100D3F89430FB60FB6823F00803FB60FB7861
S214005110002B01D0082300E00023FA681343FB604D
S2140051207B68FA68C3F8942000BF1437BD465DF864
S214005130047B704780B483B000AF78600B46FB708A
S214005140FB78002B06D07B685B6843F400227B6804
S2140051505A6005E07B685B6823F400227B685A602F
S21400516000BF0C37BD465DF8047B704780B485B041
S21400517000AF78607B68D3F89430FB60FB689B08D0
S21400518003F00103FB60FB68002B14BF0123002320
S214005190DBB218461437BD465DF8047B704780B412
S2140051A085B000AF78600B46FB707B68D3F8943010
S2140051B0FB60FB6823F00403FB60FB78002B01D048
S2140051C0042300E00023FA681343FB607B68FA6858
S2140051D0C3F8942000BF1437BD465DF8047B7047C3
S2140051E080B485B000AF78607B68D3F89430FB60FD
S2140051F0FB6803F00303FB60FB68DBB2184614375A
S214005200BD465DF8047B704780B485B000AF78601B
S2140052100B46FB707B68D3F89430FB60FB6823F08A
S2140052200303FB60FB7803F00303FA681343FB6099
S2140052307B68FA68C3F8942000BF1437BD465DF853
S214005240047B704780B485B000AF78607B68D3F885
S2140052509430FB60FB68DB0903F00103FB60FB682E
S214005260002B14BF01230023DBB218461437BD46BB
S2140052705DF8047B704780B485B000AF78600B465D
S214005280FB707B68D3F89430FB60FB6823F08003E8
S214005290FB60FB78002B01D0802300E00023FA6837
S2140052A01343FB607B68FA68C3F8942000BF14378A
S2140052B0BD465DF8047B704780B586B000AF786069
S2140052C0084611461A460346FB700B463B801346BB
S2140052D0BB703B88B3F5706F28D33B8840F60572E9
S2140052E0934223D83B88A3F570633B61234BFB6056
S2140052F0FB685B6803F40023002B14BF0123002324
S214005300DBB21846FFF7FCFCFB685B6823F4E02280
S214005310FB685A60FB685A683B691B0403F4E02389
S2140053201A43FB685A601523FB8201E03B88FB8228
S214005330FA787B6853F82230BB60BB6823F01F0303
S214005340BB60FB8A03F01F03BA681343BB60BB68ED
S21400535023F04003BB60BB78002B01D0402300E065
S2140053600023BA681343BB60FA787B68B96843F8D1
S214005370221000BF1837BD4680BD00BF0080044025
S21400538080B582B000AF78607B68002B14BF012325
S2140053900023DBB21846FFF7B3FC7B6800221A70C6
S2140053A07B680C225A707B6800229A707B68002209
S2140053B0DA707B6800221A717B6800225A717B685B
S2140053C000229A717B680022DA717B6800221A72CA
S2140053D07B6800225A727B6800229A7200BF0837E8
S2140053E0BD4680BD80B588B000AF786039607B6808
S2140053F0012B94BF01230023DBB21846FFF780FC85
S2140054003B68002B14BF01230023DBB21846FFF7CE
S21400541077FC3B68DB78002B0CBF01230023DBB254
S2140054201846FFF76DFC4A4A7B6852F82330FB614A
S214005430484B1B883B820023FB6007F110027B6809
S21400544013441B7807F10C021146184603F0AEF918
S21400545003467B837B8B002B0CBF01230023DBB230
S2140054601846FFF74DFCFB683A681278D340FB609D
S214005470FB68394A934205D9FB68384A934201D8FB
S214005480012300E0002303F00103DBB21846FFF718
S21400549037FC3B681B781946F869FFF756FC3B68F3
S2140054A05B781946F869FFF77FFC3B689B781946DE
S2140054B0F869FFF79AFC3B68DB781946F869FFF74E
S2140054C0B1FC3B681B791946F869FFF7DCFC3B68C2
S2140054D05B7919467868FFF747FD3B689B79194664
S2140054E07868FFF785FD3B68DB791946F869FFF7B2
S2140054F0C1FD3B681B7A1946F869FFF7DCFD3B687F
S2140055005B7A1946F869FFF7F4FD3B689B7A83F0EF
S2140055100103DBB2002B02D17B68002B01D10123F3
S21400552000E0002303F00103DBB21846FFF7E8FBB8
S2140055307B68002B07D10A4B7B613B689B7A194638
S2140055407869FFF7F7FD00BF2037BD4680BD00BF76
S21400555090690100A46101007F841E0080F0FA02B9
S2140055600080044080B586B000AF78607B68012B71
S21400557094BF01230023DBB21846FFF7C1FB2C4A79
S2140055807B6852F823303B610023FB750023FB75D4
S21400559007E0FA7D3B691F2143F82210FB7D0133AB
S2140055A0FB75FB7D0F2BF4D93B6900221A643B691F
S2140055B00C225A640023FB7508E0FA7D3B69223210
S2140055C0002143F82210FB7D0133FB75FB7D012B88
S2140055D0F3D93B690022C3F890203B690022C3F848
S2140055E094203B690022C3F8A0203B690422C3F83C
S2140055F0B02000217868FFF7B7FC00217868FFF735
S214005600F7FC0021786800F063F87B68002B0BD16C
S214005610084BFB600021F868FFF78CFDFB685B68B1
S21400562023F4E022FB685A6000BF1837BD4680BDF1
S214005630906901000080044080B586B000AFF86035
S2140056400B467A60FB72FB68012B94BF0123002394
S214005650DBB21846FFF754FBFB7A0F2B94BF0123EF
S2140056600023DBB21846FFF74BFB7B68002B14BF0A
S21400567001230023DBB21846FFF742FB134AFB6800
S21400568052F823307B61FB68002B0AD07B685B886E
S214005690B3F5706F05D37B685B8840F6057293425E
S2140056A001D9012300E0002303F00103DBB2184612
S2140056B0FFF726FB7B685A887B681B78F97A78693F
S2140056C0FFF7FAFD00BF1837BD4680BD90690100A0
S2140056D080B586B000AF78600B46FB707B68012B08
S2140056E094BF01230023DBB21846FFF709FB264BC5
S2140056F03B6100237B6107F1080300221A605A60B1
S2140057000E23BB604FF46063FB607868FFF7DAFB3C
S2140057100346022B02D0FB78002B01D1012300E0C8
S214005720002303F00103DBB21846FFF7E9FA3B69F2
S2140057309A697B689B0007F118010B4453F8103CEC
S214005740DB4313407B617B68002B02D0012B08D023
S2140057500FE0FB785B0003F00E037A6913437B616E
S2140057600BE0FB785B0203F460637A6913437B61AA
S21400577003E00020FFF7C4FA00BF3B697A699A612C
S21400578000BF1837BD4680BD0080044080B586B097
S21400579000AFF8600B467A60FB72FB68012B94BF83
S2140057A001230023DBB21846FFF7AAFA7B68002B1A
S2140057B014BF01230023DBB21846FFF7A1FA104AF4
S2140057C0FB6852F823307B61FB7A0F2B94BF0123D2
S2140057D00023DBB21846FFF793FAFA7A7B69123297
S2140057E053F822303B613B69C3F30B033B613B69D3
S2140057F09AB27B681A8000BF1837BD4680BD00BFCE
S2140058009069010080B588B000AF78607B68012B96
S21400581094BF01230023DBB21846FFF771FA5E4AF5
S2140058207B6852F82330BB61B869FFF79FFC0346DC
S214005830FB75B869FFF7D4FC0346BB75B869FFF77C
S2140058400DFB03467B75B869FFF79CFA03463B756C
S2140058500321B869FFF7D8FC0121B869FFF79FFC60
S2140058600021B869FFF70FFB0C21B869FFF79CFA17
S214005870BB690022C3F8B420BB690022C3F8B82075
S214005880BB690022C3F8BC20BB690022C3F8C02055
S214005890BB690022C3F8C420BB690022C3F8C82035
S2140058A0BB690022C3F8CC203C4B1B88BB8100237D
S2140058B0BB60B869FFF735FA0346FB740023FB7735
S2140058C007F10C027B6813441B7807F108021146A7
S2140058D0184602F06BFF03463B823B8A002B0CBF48
S2140058E001230023DBB21846FFF70AFABB682C4AEE
S2140058F093428CBF01230023DBB21846FFF700FA61
S214005900BA68FB7C22FA03F3264A93421CD9BB688A
S214005910254A934202D80123FB7710E0BB68234A4E
S214005920934202D80223FB7709E0BB68204A9342E1
S21400593002D80323FB7702E00020FFF7E1F9FB7FA4
S2140059401946B869FFF701FA0121B869FFF793FC19
S21400595000BFB869FFF776FC0346002BF9D1FB7C45
S2140059601946B869FFF7F1F9FB7D1946B869FFF7E4
S21400597016FCBB7D1946B869FFF746FC7B7D1946C9
S214005980B869FFF780FA3B7D1946B869FFF70CFA4D
S21400599000BF2037BD4680BD90690100A4610100AC
S2140059A07F841E0040787D0181F0FA0203E1F50550
S2140059B007C2EB0B80B584B000AF78607B68012B24
S2140059C094BF01230023DBB21846FFF799F9054A76
S2140059D07B6813441B78FB7397F90F301846103713
S2140059E0BD4680BD9869010080B483B000AF034611
S2140059F0FB71FB79DBB2002B01D100BEFEE700BFD6
S214005A000C37BD465DF8047B704780B483B000AFAA
S214005A1078607B681B691B0903F0030318460C3784
S214005A20BD465DF8047B704780B487B000AFF86071
S214005A307B600B46FB721346BB72FB681B697B617F
S214005A407B6923F03F037B61FB7A002B01D00123A7
S214005A5000E000237A6913437B61BB7A002B01D0F8
S214005A60022300E000237A6913437B617B689B0076
S214005A7003F00C037A6913437B613B6A1B0103F056
S214005A8030037A6913437B61FB687A691A6100BF49
S214005A901C37BD465DF8047B704780B485B000AF08
S214005AA078600B46FB707B681B6CFB60FB6823F022
